{
  "_format": "hh-sol-artifact-1",
  "contractName": "CryptoDevs",
  "sourceName": "contracts/CryptoDevs.sol",
  "abi": [
    {
      "inputs": [
        {
          "internalType": "string",
          "name": "baseURI",
          "type": "string"
        },
        {
          "internalType": "address",
          "name": "whitelistContract",
          "type": "address"
        }
      ],
      "stateMutability": "nonpayable",
      "type": "constructor"
    },
    {
      "anonymous": false,
      "inputs": [
        {
          "indexed": true,
          "internalType": "address",
          "name": "owner",
          "type": "address"
        },
        {
          "indexed": true,
          "internalType": "address",
          "name": "approved",
          "type": "address"
        },
        {
          "indexed": true,
          "internalType": "uint256",
          "name": "tokenId",
          "type": "uint256"
        }
      ],
      "name": "Approval",
      "type": "event"
    },
    {
      "anonymous": false,
      "inputs": [
        {
          "indexed": true,
          "internalType": "address",
          "name": "owner",
          "type": "address"
        },
        {
          "indexed": true,
          "internalType": "address",
          "name": "operator",
          "type": "address"
        },
        {
          "indexed": false,
          "internalType": "bool",
          "name": "approved",
          "type": "bool"
        }
      ],
      "name": "ApprovalForAll",
      "type": "event"
    },
    {
      "anonymous": false,
      "inputs": [
        {
          "indexed": true,
          "internalType": "address",
          "name": "previousOwner",
          "type": "address"
        },
        {
          "indexed": true,
          "internalType": "address",
          "name": "newOwner",
          "type": "address"
        }
      ],
      "name": "OwnershipTransferred",
      "type": "event"
    },
    {
      "anonymous": false,
      "inputs": [
        {
          "indexed": true,
          "internalType": "address",
          "name": "from",
          "type": "address"
        },
        {
          "indexed": true,
          "internalType": "address",
          "name": "to",
          "type": "address"
        },
        {
          "indexed": true,
          "internalType": "uint256",
          "name": "tokenId",
          "type": "uint256"
        }
      ],
      "name": "Transfer",
      "type": "event"
    },
    {
      "stateMutability": "payable",
      "type": "fallback"
    },
    {
      "inputs": [],
      "name": "_paused",
      "outputs": [
        {
          "internalType": "bool",
          "name": "",
          "type": "bool"
        }
      ],
      "stateMutability": "view",
      "type": "function"
    },
    {
      "inputs": [],
      "name": "_price",
      "outputs": [
        {
          "internalType": "uint256",
          "name": "",
          "type": "uint256"
        }
      ],
      "stateMutability": "view",
      "type": "function"
    },
    {
      "inputs": [
        {
          "internalType": "address",
          "name": "to",
          "type": "address"
        },
        {
          "internalType": "uint256",
          "name": "tokenId",
          "type": "uint256"
        }
      ],
      "name": "approve",
      "outputs": [],
      "stateMutability": "nonpayable",
      "type": "function"
    },
    {
      "inputs": [
        {
          "internalType": "address",
          "name": "owner",
          "type": "address"
        }
      ],
      "name": "balanceOf",
      "outputs": [
        {
          "internalType": "uint256",
          "name": "",
          "type": "uint256"
        }
      ],
      "stateMutability": "view",
      "type": "function"
    },
    {
      "inputs": [
        {
          "internalType": "uint256",
          "name": "tokenId",
          "type": "uint256"
        }
      ],
      "name": "getApproved",
      "outputs": [
        {
          "internalType": "address",
          "name": "",
          "type": "address"
        }
      ],
      "stateMutability": "view",
      "type": "function"
    },
    {
      "inputs": [
        {
          "internalType": "address",
          "name": "owner",
          "type": "address"
        },
        {
          "internalType": "address",
          "name": "operator",
          "type": "address"
        }
      ],
      "name": "isApprovedForAll",
      "outputs": [
        {
          "internalType": "bool",
          "name": "",
          "type": "bool"
        }
      ],
      "stateMutability": "view",
      "type": "function"
    },
    {
      "inputs": [],
      "name": "maxTokenIds",
      "outputs": [
        {
          "internalType": "uint256",
          "name": "",
          "type": "uint256"
        }
      ],
      "stateMutability": "view",
      "type": "function"
    },
    {
      "inputs": [],
      "name": "mint",
      "outputs": [],
      "stateMutability": "payable",
      "type": "function"
    },
    {
      "inputs": [],
      "name": "name",
      "outputs": [
        {
          "internalType": "string",
          "name": "",
          "type": "string"
        }
      ],
      "stateMutability": "view",
      "type": "function"
    },
    {
      "inputs": [],
      "name": "owner",
      "outputs": [
        {
          "internalType": "address",
          "name": "",
          "type": "address"
        }
      ],
      "stateMutability": "view",
      "type": "function"
    },
    {
      "inputs": [
        {
          "internalType": "uint256",
          "name": "tokenId",
          "type": "uint256"
        }
      ],
      "name": "ownerOf",
      "outputs": [
        {
          "internalType": "address",
          "name": "",
          "type": "address"
        }
      ],
      "stateMutability": "view",
      "type": "function"
    },
    {
      "inputs": [],
      "name": "presaleEnded",
      "outputs": [
        {
          "internalType": "uint256",
          "name": "",
          "type": "uint256"
        }
      ],
      "stateMutability": "view",
      "type": "function"
    },
    {
      "inputs": [],
      "name": "presaleMint",
      "outputs": [],
      "stateMutability": "payable",
      "type": "function"
    },
    {
      "inputs": [],
      "name": "presaleStarted",
      "outputs": [
        {
          "internalType": "bool",
          "name": "",
          "type": "bool"
        }
      ],
      "stateMutability": "view",
      "type": "function"
    },
    {
      "inputs": [],
      "name": "renounceOwnership",
      "outputs": [],
      "stateMutability": "nonpayable",
      "type": "function"
    },
    {
      "inputs": [
        {
          "internalType": "address",
          "name": "from",
          "type": "address"
        },
        {
          "internalType": "address",
          "name": "to",
          "type": "address"
        },
        {
          "internalType": "uint256",
          "name": "tokenId",
          "type": "uint256"
        }
      ],
      "name": "safeTransferFrom",
      "outputs": [],
      "stateMutability": "nonpayable",
      "type": "function"
    },
    {
      "inputs": [
        {
          "internalType": "address",
          "name": "from",
          "type": "address"
        },
        {
          "internalType": "address",
          "name": "to",
          "type": "address"
        },
        {
          "internalType": "uint256",
          "name": "tokenId",
          "type": "uint256"
        },
        {
          "internalType": "bytes",
          "name": "data",
          "type": "bytes"
        }
      ],
      "name": "safeTransferFrom",
      "outputs": [],
      "stateMutability": "nonpayable",
      "type": "function"
    },
    {
      "inputs": [
        {
          "internalType": "address",
          "name": "operator",
          "type": "address"
        },
        {
          "internalType": "bool",
          "name": "approved",
          "type": "bool"
        }
      ],
      "name": "setApprovalForAll",
      "outputs": [],
      "stateMutability": "nonpayable",
      "type": "function"
    },
    {
      "inputs": [
        {
          "internalType": "bool",
          "name": "val",
          "type": "bool"
        }
      ],
      "name": "setPaused",
      "outputs": [],
      "stateMutability": "nonpayable",
      "type": "function"
    },
    {
      "inputs": [],
      "name": "startPresale",
      "outputs": [],
      "stateMutability": "nonpayable",
      "type": "function"
    },
    {
      "inputs": [
        {
          "internalType": "bytes4",
          "name": "interfaceId",
          "type": "bytes4"
        }
      ],
      "name": "supportsInterface",
      "outputs": [
        {
          "internalType": "bool",
          "name": "",
          "type": "bool"
        }
      ],
      "stateMutability": "view",
      "type": "function"
    },
    {
      "inputs": [],
      "name": "symbol",
      "outputs": [
        {
          "internalType": "string",
          "name": "",
          "type": "string"
        }
      ],
      "stateMutability": "view",
      "type": "function"
    },
    {
      "inputs": [
        {
          "internalType": "uint256",
          "name": "index",
          "type": "uint256"
        }
      ],
      "name": "tokenByIndex",
      "outputs": [
        {
          "internalType": "uint256",
          "name": "",
          "type": "uint256"
        }
      ],
      "stateMutability": "view",
      "type": "function"
    },
    {
      "inputs": [],
      "name": "tokenIds",
      "outputs": [
        {
          "internalType": "uint256",
          "name": "",
          "type": "uint256"
        }
      ],
      "stateMutability": "view",
      "type": "function"
    },
    {
      "inputs": [
        {
          "internalType": "address",
          "name": "owner",
          "type": "address"
        },
        {
          "internalType": "uint256",
          "name": "index",
          "type": "uint256"
        }
      ],
      "name": "tokenOfOwnerByIndex",
      "outputs": [
        {
          "internalType": "uint256",
          "name": "",
          "type": "uint256"
        }
      ],
      "stateMutability": "view",
      "type": "function"
    },
    {
      "inputs": [
        {
          "internalType": "uint256",
          "name": "tokenId",
          "type": "uint256"
        }
      ],
      "name": "tokenURI",
      "outputs": [
        {
          "internalType": "string",
          "name": "",
          "type": "string"
        }
      ],
      "stateMutability": "view",
      "type": "function"
    },
    {
      "inputs": [],
      "name": "totalSupply",
      "outputs": [
        {
          "internalType": "uint256",
          "name": "",
          "type": "uint256"
        }
      ],
      "stateMutability": "view",
      "type": "function"
    },
    {
      "inputs": [
        {
          "internalType": "address",
          "name": "from",
          "type": "address"
        },
        {
          "internalType": "address",
          "name": "to",
          "type": "address"
        },
        {
          "internalType": "uint256",
          "name": "tokenId",
          "type": "uint256"
        }
      ],
      "name": "transferFrom",
      "outputs": [],
      "stateMutability": "nonpayable",
      "type": "function"
    },
    {
      "inputs": [
        {
          "internalType": "address",
          "name": "newOwner",
          "type": "address"
        }
      ],
      "name": "transferOwnership",
      "outputs": [],
      "stateMutability": "nonpayable",
      "type": "function"
    },
    {
      "inputs": [],
      "name": "withdraw",
      "outputs": [],
      "stateMutability": "nonpayable",
      "type": "function"
    },
    {
      "stateMutability": "payable",
      "type": "receive"
    }
  ],
  "bytecode": "0x6080604052662386f26fc10000600c556014600e553480156200002157600080fd5b50604051620046b9380380620046b983398181016040528101906200004791906200041a565b6040518060400160405280600b81526020017f43727970746f20446576730000000000000000000000000000000000000000008152506040518060400160405280600281526020017f43440000000000000000000000000000000000000000000000000000000000008152508160009081620000c49190620006cb565b508060019081620000d69190620006cb565b505050620000f9620000ed6200015460201b60201c565b6200015c60201b60201c565b81600b90816200010a9190620006cb565b5080601060006101000a81548173ffffffffffffffffffffffffffffffffffffffff021916908373ffffffffffffffffffffffffffffffffffffffff1602179055505050620007b2565b600033905090565b6000600a60009054906101000a900473ffffffffffffffffffffffffffffffffffffffff16905081600a60006101000a81548173ffffffffffffffffffffffffffffffffffffffff021916908373ffffffffffffffffffffffffffffffffffffffff1602179055508173ffffffffffffffffffffffffffffffffffffffff168173ffffffffffffffffffffffffffffffffffffffff167f8be0079c531659141344cd1fd0a4f28419497f9722a3daafe3b4186f6b6457e060405160405180910390a35050565b6000604051905090565b600080fd5b600080fd5b600080fd5b600080fd5b6000601f19601f8301169050919050565b7f4e487b7100000000000000000000000000000000000000000000000000000000600052604160045260246000fd5b6200028b8262000240565b810181811067ffffffffffffffff82111715620002ad57620002ac62000251565b5b80604052505050565b6000620002c262000222565b9050620002d0828262000280565b919050565b600067ffffffffffffffff821115620002f357620002f262000251565b5b620002fe8262000240565b9050602081019050919050565b60005b838110156200032b5780820151818401526020810190506200030e565b60008484015250505050565b60006200034e6200034884620002d5565b620002b6565b9050828152602081018484840111156200036d576200036c6200023b565b5b6200037a8482856200030b565b509392505050565b600082601f8301126200039a576200039962000236565b5b8151620003ac84826020860162000337565b91505092915050565b600073ffffffffffffffffffffffffffffffffffffffff82169050919050565b6000620003e282620003b5565b9050919050565b620003f481620003d5565b81146200040057600080fd5b50565b6000815190506200041481620003e9565b92915050565b600080604083850312156200043457620004336200022c565b5b600083015167ffffffffffffffff81111562000455576200045462000231565b5b620004638582860162000382565b9250506020620004768582860162000403565b9150509250929050565b600081519050919050565b7f4e487b7100000000000000000000000000000000000000000000000000000000600052602260045260246000fd5b60006002820490506001821680620004d357607f821691505b602082108103620004e957620004e86200048b565b5b50919050565b60008190508160005260206000209050919050565b60006020601f8301049050919050565b600082821b905092915050565b600060088302620005537fffffffffffffffffffffffffffffffffffffffffffffffffffffffffffffffff8262000514565b6200055f868362000514565b95508019841693508086168417925050509392505050565b6000819050919050565b6000819050919050565b6000620005ac620005a6620005a08462000577565b62000581565b62000577565b9050919050565b6000819050919050565b620005c8836200058b565b620005e0620005d782620005b3565b84845462000521565b825550505050565b600090565b620005f7620005e8565b62000604818484620005bd565b505050565b5b818110156200062c5762000620600082620005ed565b6001810190506200060a565b5050565b601f8211156200067b576200064581620004ef565b620006508462000504565b8101602085101562000660578190505b620006786200066f8562000504565b83018262000609565b50505b505050565b600082821c905092915050565b6000620006a06000198460080262000680565b1980831691505092915050565b6000620006bb83836200068d565b9150826002028217905092915050565b620006d68262000480565b67ffffffffffffffff811115620006f257620006f162000251565b5b620006fe8254620004ba565b6200070b82828562000630565b600060209050601f8311600181146200074357600084156200072e578287015190505b6200073a8582620006ad565b865550620007aa565b601f1984166200075386620004ef565b60005b828110156200077d5784890151825560018201915060208501945060208101905062000756565b868310156200079d578489015162000799601f8916826200068d565b8355505b6001600288020188555050505b505050505050565b613ef780620007c26000396000f3fe6080604052600436106101d15760003560e01c80634f6ccce7116100f75780638da5cb5b11610095578063c87b56dd11610064578063c87b56dd1461061a578063e580b2b014610657578063e985e9c514610682578063f2fde38b146106bf576101d8565b80638da5cb5b1461057257806395d89b411461059d578063a22cb465146105c8578063b88d4fde146105f1576101d8565b80636352211e116100d15780636352211e146104b657806370a08231146104f3578063714cff5614610530578063715018a61461055b576101d8565b80634f6ccce71461044457806359533d6c146104815780635f7696211461048b576101d8565b806316c38b3c1161016f57806323b872dd1161013e57806323b872dd1461039e5780632f745c59146103c75780633ccfd60b1461040457806342842e0e1461041b576101d8565b806316c38b3c146102f457806316c61ccc1461031d57806318160ddd14610348578063235b6ea114610373576101d8565b806306fdde03116101ab57806306fdde0314610259578063081812fc14610284578063095ea7b3146102c15780631249c58b146102ea576101d8565b806301ffc9a7146101da57806304549d6f1461021757806304c98b2b14610242576101d8565b366101d857005b005b3480156101e657600080fd5b5061020160048036038101906101fc9190612a55565b6106e8565b60405161020e9190612a9d565b60405180910390f35b34801561022357600080fd5b5061022c610762565b6040516102399190612a9d565b60405180910390f35b34801561024e57600080fd5b50610257610775565b005b34801561026557600080fd5b5061026e6107ae565b60405161027b9190612b48565b60405180910390f35b34801561029057600080fd5b506102ab60048036038101906102a69190612ba0565b610840565b6040516102b89190612c0e565b60405180910390f35b3480156102cd57600080fd5b506102e860048036038101906102e39190612c55565b610886565b005b6102f261099d565b005b34801561030057600080fd5b5061031b60048036038101906103169190612cc1565b610afc565b005b34801561032957600080fd5b50610332610b21565b60405161033f9190612a9d565b60405180910390f35b34801561035457600080fd5b5061035d610b34565b60405161036a9190612cfd565b60405180910390f35b34801561037f57600080fd5b50610388610b41565b6040516103959190612cfd565b60405180910390f35b3480156103aa57600080fd5b506103c560048036038101906103c09190612d18565b610b47565b005b3480156103d357600080fd5b506103ee60048036038101906103e99190612c55565b610ba7565b6040516103fb9190612cfd565b60405180910390f35b34801561041057600080fd5b50610419610c4c565b005b34801561042757600080fd5b50610442600480360381019061043d9190612d18565b610d16565b005b34801561045057600080fd5b5061046b60048036038101906104669190612ba0565b610d36565b6040516104789190612cfd565b60405180910390f35b610489610da7565b005b34801561049757600080fd5b506104a0610fe0565b6040516104ad9190612cfd565b60405180910390f35b3480156104c257600080fd5b506104dd60048036038101906104d89190612ba0565b610fe6565b6040516104ea9190612c0e565b60405180910390f35b3480156104ff57600080fd5b5061051a60048036038101906105159190612d6b565b61106c565b6040516105279190612cfd565b60405180910390f35b34801561053c57600080fd5b50610545611123565b6040516105529190612cfd565b60405180910390f35b34801561056757600080fd5b50610570611129565b005b34801561057e57600080fd5b5061058761113d565b6040516105949190612c0e565b60405180910390f35b3480156105a957600080fd5b506105b2611167565b6040516105bf9190612b48565b60405180910390f35b3480156105d457600080fd5b506105ef60048036038101906105ea9190612d98565b6111f9565b005b3480156105fd57600080fd5b5061061860048036038101906106139190612f0d565b61120f565b005b34801561062657600080fd5b50610641600480360381019061063c9190612ba0565b611271565b60405161064e9190612b48565b60405180910390f35b34801561066357600080fd5b5061066c6112d9565b6040516106799190612cfd565b60405180910390f35b34801561068e57600080fd5b506106a960048036038101906106a49190612f90565b6112df565b6040516106b69190612a9d565b60405180910390f35b3480156106cb57600080fd5b506106e660048036038101906106e19190612d6b565b611373565b005b60007f780e9d63000000000000000000000000000000000000000000000000000000007bffffffffffffffffffffffffffffffffffffffffffffffffffffffff1916827bffffffffffffffffffffffffffffffffffffffffffffffffffffffff1916148061075b575061075a826113f6565b5b9050919050565b601060149054906101000a900460ff1681565b61077d6114d8565b6001601060146101000a81548160ff02191690831515021790555061012c426107a69190612fff565b601181905550565b6060600080546107bd90613062565b80601f01602080910402602001604051908101604052809291908181526020018280546107e990613062565b80156108365780601f1061080b57610100808354040283529160200191610836565b820191906000526020600020905b81548152906001019060200180831161081957829003601f168201915b5050505050905090565b600061084b82611556565b6004600083815260200190815260200160002060009054906101000a900473ffffffffffffffffffffffffffffffffffffffff169050919050565b600061089182610fe6565b90508073ffffffffffffffffffffffffffffffffffffffff168373ffffffffffffffffffffffffffffffffffffffff1603610901576040517f08c379a00000000000000000000000000000000000000000000000000000000081526004016108f890613105565b60405180910390fd5b8073ffffffffffffffffffffffffffffffffffffffff166109206115a1565b73ffffffffffffffffffffffffffffffffffffffff16148061094f575061094e816109496115a1565b6112df565b5b61098e576040517f08c379a000000000000000000000000000000000000000000000000000000000815260040161098590613197565b60405180910390fd5b61099883836115a9565b505050565b600d60009054906101000a900460ff16156109ed576040517f08c379a00000000000000000000000000000000000000000000000000000000081526004016109e490613203565b60405180910390fd5b601060149054906101000a900460ff168015610a0b57506011544210155b610a4a576040517f08c379a0000000000000000000000000000000000000000000000000000000008152600401610a419061326f565b60405180910390fd5b600e54600f5410610a90576040517f08c379a0000000000000000000000000000000000000000000000000000000008152600401610a8790613301565b60405180910390fd5b600c543414610ad4576040517f08c379a0000000000000000000000000000000000000000000000000000000008152600401610acb90613393565b60405180910390fd5b6001600f6000828254610ae79190612fff565b92505081905550610afa33600f54611662565b565b610b046114d8565b80600d60006101000a81548160ff02191690831515021790555050565b600d60009054906101000a900460ff1681565b6000600880549050905090565b600c5481565b610b58610b526115a1565b82611680565b610b97576040517f08c379a0000000000000000000000000000000000000000000000000000000008152600401610b8e90613425565b60405180910390fd5b610ba2838383611715565b505050565b6000610bb28361106c565b8210610bf3576040517f08c379a0000000000000000000000000000000000000000000000000000000008152600401610bea906134b7565b60405180910390fd5b600660008473ffffffffffffffffffffffffffffffffffffffff1673ffffffffffffffffffffffffffffffffffffffff168152602001908152602001600020600083815260200190815260200160002054905092915050565b610c546114d8565b6000610c5e61113d565b9050600047905060008273ffffffffffffffffffffffffffffffffffffffff1682604051610c8b90613508565b60006040518083038185875af1925050503d8060008114610cc8576040519150601f19603f3d011682016040523d82523d6000602084013e610ccd565b606091505b5050905080610d11576040517f08c379a0000000000000000000000000000000000000000000000000000000008152600401610d0890613569565b60405180910390fd5b505050565b610d318383836040518060200160405280600081525061120f565b505050565b6000610d40610b34565b8210610d81576040517f08c379a0000000000000000000000000000000000000000000000000000000008152600401610d78906135fb565b60405180910390fd5b60088281548110610d9557610d9461361b565b5b90600052602060002001549050919050565b600d60009054906101000a900460ff1615610df7576040517f08c379a0000000000000000000000000000000000000000000000000000000008152600401610dee90613203565b60405180910390fd5b601060149054906101000a900460ff168015610e14575060115442105b610e53576040517f08c379a0000000000000000000000000000000000000000000000000000000008152600401610e4a90613696565b60405180910390fd5b601060009054906101000a900473ffffffffffffffffffffffffffffffffffffffff1673ffffffffffffffffffffffffffffffffffffffff166306c933d8336040518263ffffffff1660e01b8152600401610eae9190612c0e565b602060405180830381865afa158015610ecb573d6000803e3d6000fd5b505050506040513d601f19601f82011682018060405250810190610eef91906136cb565b610f2e576040517f08c379a0000000000000000000000000000000000000000000000000000000008152600401610f2590613744565b60405180910390fd5b600e54600f5410610f74576040517f08c379a0000000000000000000000000000000000000000000000000000000008152600401610f6b90613301565b60405180910390fd5b600c543414610fb8576040517f08c379a0000000000000000000000000000000000000000000000000000000008152600401610faf90613393565b60405180910390fd5b6001600f6000828254610fcb9190612fff565b92505081905550610fde33600f54611662565b565b600e5481565b600080610ff283611a0e565b9050600073ffffffffffffffffffffffffffffffffffffffff168173ffffffffffffffffffffffffffffffffffffffff1603611063576040517f08c379a000000000000000000000000000000000000000000000000000000000815260040161105a906137b0565b60405180910390fd5b80915050919050565b60008073ffffffffffffffffffffffffffffffffffffffff168273ffffffffffffffffffffffffffffffffffffffff16036110dc576040517f08c379a00000000000000000000000000000000000000000000000000000000081526004016110d390613842565b60405180910390fd5b600360008373ffffffffffffffffffffffffffffffffffffffff1673ffffffffffffffffffffffffffffffffffffffff168152602001908152602001600020549050919050565b600f5481565b6111316114d8565b61113b6000611a4b565b565b6000600a60009054906101000a900473ffffffffffffffffffffffffffffffffffffffff16905090565b60606001805461117690613062565b80601f01602080910402602001604051908101604052809291908181526020018280546111a290613062565b80156111ef5780601f106111c4576101008083540402835291602001916111ef565b820191906000526020600020905b8154815290600101906020018083116111d257829003601f168201915b5050505050905090565b61120b6112046115a1565b8383611b11565b5050565b61122061121a6115a1565b83611680565b61125f576040517f08c379a000000000000000000000000000000000000000000000000000000000815260040161125690613425565b60405180910390fd5b61126b84848484611c7d565b50505050565b606061127c82611556565b6000611286611cd9565b905060008151116112a657604051806020016040528060008152506112d1565b806112b084611d6b565b6040516020016112c192919061389e565b6040516020818303038152906040525b915050919050565b60115481565b6000600560008473ffffffffffffffffffffffffffffffffffffffff1673ffffffffffffffffffffffffffffffffffffffff16815260200190815260200160002060008373ffffffffffffffffffffffffffffffffffffffff1673ffffffffffffffffffffffffffffffffffffffff16815260200190815260200160002060009054906101000a900460ff16905092915050565b61137b6114d8565b600073ffffffffffffffffffffffffffffffffffffffff168173ffffffffffffffffffffffffffffffffffffffff16036113ea576040517f08c379a00000000000000000000000000000000000000000000000000000000081526004016113e190613934565b60405180910390fd5b6113f381611a4b565b50565b60007f80ac58cd000000000000000000000000000000000000000000000000000000007bffffffffffffffffffffffffffffffffffffffffffffffffffffffff1916827bffffffffffffffffffffffffffffffffffffffffffffffffffffffff191614806114c157507f5b5e139f000000000000000000000000000000000000000000000000000000007bffffffffffffffffffffffffffffffffffffffffffffffffffffffff1916827bffffffffffffffffffffffffffffffffffffffffffffffffffffffff1916145b806114d157506114d082611e39565b5b9050919050565b6114e06115a1565b73ffffffffffffffffffffffffffffffffffffffff166114fe61113d565b73ffffffffffffffffffffffffffffffffffffffff1614611554576040517f08c379a000000000000000000000000000000000000000000000000000000000815260040161154b906139a0565b60405180910390fd5b565b61155f81611ea3565b61159e576040517f08c379a0000000000000000000000000000000000000000000000000000000008152600401611595906137b0565b60405180910390fd5b50565b600033905090565b816004600083815260200190815260200160002060006101000a81548173ffffffffffffffffffffffffffffffffffffffff021916908373ffffffffffffffffffffffffffffffffffffffff160217905550808273ffffffffffffffffffffffffffffffffffffffff1661161c83610fe6565b73ffffffffffffffffffffffffffffffffffffffff167f8c5be1e5ebec7d5bd14f71427d1e84f3dd0314c0f7b2291e5b200ac8c7c3b92560405160405180910390a45050565b61167c828260405180602001604052806000815250611ee4565b5050565b60008061168c83610fe6565b90508073ffffffffffffffffffffffffffffffffffffffff168473ffffffffffffffffffffffffffffffffffffffff1614806116ce57506116cd81856112df565b5b8061170c57508373ffffffffffffffffffffffffffffffffffffffff166116f484610840565b73ffffffffffffffffffffffffffffffffffffffff16145b91505092915050565b8273ffffffffffffffffffffffffffffffffffffffff1661173582610fe6565b73ffffffffffffffffffffffffffffffffffffffff161461178b576040517f08c379a000000000000000000000000000000000000000000000000000000000815260040161178290613a32565b60405180910390fd5b600073ffffffffffffffffffffffffffffffffffffffff168273ffffffffffffffffffffffffffffffffffffffff16036117fa576040517f08c379a00000000000000000000000000000000000000000000000000000000081526004016117f190613ac4565b60405180910390fd5b6118078383836001611f3f565b8273ffffffffffffffffffffffffffffffffffffffff1661182782610fe6565b73ffffffffffffffffffffffffffffffffffffffff161461187d576040517f08c379a000000000000000000000000000000000000000000000000000000000815260040161187490613a32565b60405180910390fd5b6004600082815260200190815260200160002060006101000a81549073ffffffffffffffffffffffffffffffffffffffff02191690556001600360008573ffffffffffffffffffffffffffffffffffffffff1673ffffffffffffffffffffffffffffffffffffffff168152602001908152602001600020600082825403925050819055506001600360008473ffffffffffffffffffffffffffffffffffffffff1673ffffffffffffffffffffffffffffffffffffffff16815260200190815260200160002060008282540192505081905550816002600083815260200190815260200160002060006101000a81548173ffffffffffffffffffffffffffffffffffffffff021916908373ffffffffffffffffffffffffffffffffffffffff160217905550808273ffffffffffffffffffffffffffffffffffffffff168473ffffffffffffffffffffffffffffffffffffffff167fddf252ad1be2c89b69c2b068fc378daa952ba7f163c4a11628f55a4df523b3ef60405160405180910390a4611a09838383600161209d565b505050565b60006002600083815260200190815260200160002060009054906101000a900473ffffffffffffffffffffffffffffffffffffffff169050919050565b6000600a60009054906101000a900473ffffffffffffffffffffffffffffffffffffffff16905081600a60006101000a81548173ffffffffffffffffffffffffffffffffffffffff021916908373ffffffffffffffffffffffffffffffffffffffff1602179055508173ffffffffffffffffffffffffffffffffffffffff168173ffffffffffffffffffffffffffffffffffffffff167f8be0079c531659141344cd1fd0a4f28419497f9722a3daafe3b4186f6b6457e060405160405180910390a35050565b8173ffffffffffffffffffffffffffffffffffffffff168373ffffffffffffffffffffffffffffffffffffffff1603611b7f576040517f08c379a0000000000000000000000000000000000000000000000000000000008152600401611b7690613b30565b60405180910390fd5b80600560008573ffffffffffffffffffffffffffffffffffffffff1673ffffffffffffffffffffffffffffffffffffffff16815260200190815260200160002060008473ffffffffffffffffffffffffffffffffffffffff1673ffffffffffffffffffffffffffffffffffffffff16815260200190815260200160002060006101000a81548160ff0219169083151502179055508173ffffffffffffffffffffffffffffffffffffffff168373ffffffffffffffffffffffffffffffffffffffff167f17307eab39ab6107e8899845ad3d59bd9653f200f220920489ca2b5937696c3183604051611c709190612a9d565b60405180910390a3505050565b611c88848484611715565b611c94848484846120a3565b611cd3576040517f08c379a0000000000000000000000000000000000000000000000000000000008152600401611cca90613bc2565b60405180910390fd5b50505050565b6060600b8054611ce890613062565b80601f0160208091040260200160405190810160405280929190818152602001828054611d1490613062565b8015611d615780601f10611d3657610100808354040283529160200191611d61565b820191906000526020600020905b815481529060010190602001808311611d4457829003601f168201915b5050505050905090565b606060006001611d7a8461222a565b01905060008167ffffffffffffffff811115611d9957611d98612de2565b5b6040519080825280601f01601f191660200182016040528015611dcb5781602001600182028036833780820191505090505b509050600082602001820190505b600115611e2e578080600190039150507f3031323334353637383961626364656600000000000000000000000000000000600a86061a8153600a8581611e2257611e21613be2565b5b04945060008503611dd9575b819350505050919050565b60007f01ffc9a7000000000000000000000000000000000000000000000000000000007bffffffffffffffffffffffffffffffffffffffffffffffffffffffff1916827bffffffffffffffffffffffffffffffffffffffffffffffffffffffff1916149050919050565b60008073ffffffffffffffffffffffffffffffffffffffff16611ec583611a0e565b73ffffffffffffffffffffffffffffffffffffffff1614159050919050565b611eee838361237d565b611efb60008484846120a3565b611f3a576040517f08c379a0000000000000000000000000000000000000000000000000000000008152600401611f3190613bc2565b60405180910390fd5b505050565b611f4b8484848461259a565b6001811115611f8f576040517f08c379a0000000000000000000000000000000000000000000000000000000008152600401611f8690613c83565b60405180910390fd5b6000829050600073ffffffffffffffffffffffffffffffffffffffff168573ffffffffffffffffffffffffffffffffffffffff1603611fd657611fd1816126c0565b612015565b8373ffffffffffffffffffffffffffffffffffffffff168573ffffffffffffffffffffffffffffffffffffffff1614612014576120138582612709565b5b5b600073ffffffffffffffffffffffffffffffffffffffff168473ffffffffffffffffffffffffffffffffffffffff16036120575761205281612876565b612096565b8473ffffffffffffffffffffffffffffffffffffffff168473ffffffffffffffffffffffffffffffffffffffff1614612095576120948482612947565b5b5b5050505050565b50505050565b60006120c48473ffffffffffffffffffffffffffffffffffffffff166129c6565b1561221d578373ffffffffffffffffffffffffffffffffffffffff1663150b7a026120ed6115a1565b8786866040518563ffffffff1660e01b815260040161210f9493929190613cf8565b6020604051808303816000875af192505050801561214b57506040513d601f19601f820116820180604052508101906121489190613d59565b60015b6121cd573d806000811461217b576040519150601f19603f3d011682016040523d82523d6000602084013e612180565b606091505b5060008151036121c5576040517f08c379a00000000000000000000000000000000000000000000000000000000081526004016121bc90613bc2565b60405180910390fd5b805181602001fd5b63150b7a0260e01b7bffffffffffffffffffffffffffffffffffffffffffffffffffffffff1916817bffffffffffffffffffffffffffffffffffffffffffffffffffffffff191614915050612222565b600190505b949350505050565b600080600090507a184f03e93ff9f4daa797ed6e38ed64bf6a1f0100000000000000008310612288577a184f03e93ff9f4daa797ed6e38ed64bf6a1f010000000000000000838161227e5761227d613be2565b5b0492506040810190505b6d04ee2d6d415b85acef810000000083106122c5576d04ee2d6d415b85acef810000000083816122bb576122ba613be2565b5b0492506020810190505b662386f26fc1000083106122f457662386f26fc1000083816122ea576122e9613be2565b5b0492506010810190505b6305f5e100831061231d576305f5e100838161231357612312613be2565b5b0492506008810190505b612710831061234257612710838161233857612337613be2565b5b0492506004810190505b60648310612365576064838161235b5761235a613be2565b5b0492506002810190505b600a8310612374576001810190505b80915050919050565b600073ffffffffffffffffffffffffffffffffffffffff168273ffffffffffffffffffffffffffffffffffffffff16036123ec576040517f08c379a00000000000000000000000000000000000000000000000000000000081526004016123e390613dd2565b60405180910390fd5b6123f581611ea3565b15612435576040517f08c379a000000000000000000000000000000000000000000000000000000000815260040161242c90613e3e565b60405180910390fd5b612443600083836001611f3f565b61244c81611ea3565b1561248c576040517f08c379a000000000000000000000000000000000000000000000000000000000815260040161248390613e3e565b60405180910390fd5b6001600360008473ffffffffffffffffffffffffffffffffffffffff1673ffffffffffffffffffffffffffffffffffffffff16815260200190815260200160002060008282540192505081905550816002600083815260200190815260200160002060006101000a81548173ffffffffffffffffffffffffffffffffffffffff021916908373ffffffffffffffffffffffffffffffffffffffff160217905550808273ffffffffffffffffffffffffffffffffffffffff16600073ffffffffffffffffffffffffffffffffffffffff167fddf252ad1be2c89b69c2b068fc378daa952ba7f163c4a11628f55a4df523b3ef60405160405180910390a461259660008383600161209d565b5050565b60018111156126ba57600073ffffffffffffffffffffffffffffffffffffffff168473ffffffffffffffffffffffffffffffffffffffff161461262e5780600360008673ffffffffffffffffffffffffffffffffffffffff1673ffffffffffffffffffffffffffffffffffffffff16815260200190815260200160002060008282546126269190613e5e565b925050819055505b600073ffffffffffffffffffffffffffffffffffffffff168373ffffffffffffffffffffffffffffffffffffffff16146126b95780600360008573ffffffffffffffffffffffffffffffffffffffff1673ffffffffffffffffffffffffffffffffffffffff16815260200190815260200160002060008282546126b19190612fff565b925050819055505b5b50505050565b6008805490506009600083815260200190815260200160002081905550600881908060018154018082558091505060019003906000526020600020016000909190919091505550565b600060016127168461106c565b6127209190613e5e565b9050600060076000848152602001908152602001600020549050818114612805576000600660008673ffffffffffffffffffffffffffffffffffffffff1673ffffffffffffffffffffffffffffffffffffffff168152602001908152602001600020600084815260200190815260200160002054905080600660008773ffffffffffffffffffffffffffffffffffffffff1673ffffffffffffffffffffffffffffffffffffffff168152602001908152602001600020600084815260200190815260200160002081905550816007600083815260200190815260200160002081905550505b6007600084815260200190815260200160002060009055600660008573ffffffffffffffffffffffffffffffffffffffff1673ffffffffffffffffffffffffffffffffffffffff16815260200190815260200160002060008381526020019081526020016000206000905550505050565b6000600160088054905061288a9190613e5e565b90506000600960008481526020019081526020016000205490506000600883815481106128ba576128b961361b565b5b9060005260206000200154905080600883815481106128dc576128db61361b565b5b90600052602060002001819055508160096000838152602001908152602001600020819055506009600085815260200190815260200160002060009055600880548061292b5761292a613e92565b5b6001900381819060005260206000200160009055905550505050565b60006129528361106c565b905081600660008573ffffffffffffffffffffffffffffffffffffffff1673ffffffffffffffffffffffffffffffffffffffff168152602001908152602001600020600083815260200190815260200160002081905550806007600084815260200190815260200160002081905550505050565b6000808273ffffffffffffffffffffffffffffffffffffffff163b119050919050565b6000604051905090565b600080fd5b600080fd5b60007fffffffff0000000000000000000000000000000000000000000000000000000082169050919050565b612a32816129fd565b8114612a3d57600080fd5b50565b600081359050612a4f81612a29565b92915050565b600060208284031215612a6b57612a6a6129f3565b5b6000612a7984828501612a40565b91505092915050565b60008115159050919050565b612a9781612a82565b82525050565b6000602082019050612ab26000830184612a8e565b92915050565b600081519050919050565b600082825260208201905092915050565b60005b83811015612af2578082015181840152602081019050612ad7565b60008484015250505050565b6000601f19601f8301169050919050565b6000612b1a82612ab8565b612b248185612ac3565b9350612b34818560208601612ad4565b612b3d81612afe565b840191505092915050565b60006020820190508181036000830152612b628184612b0f565b905092915050565b6000819050919050565b612b7d81612b6a565b8114612b8857600080fd5b50565b600081359050612b9a81612b74565b92915050565b600060208284031215612bb657612bb56129f3565b5b6000612bc484828501612b8b565b91505092915050565b600073ffffffffffffffffffffffffffffffffffffffff82169050919050565b6000612bf882612bcd565b9050919050565b612c0881612bed565b82525050565b6000602082019050612c236000830184612bff565b92915050565b612c3281612bed565b8114612c3d57600080fd5b50565b600081359050612c4f81612c29565b92915050565b60008060408385031215612c6c57612c6b6129f3565b5b6000612c7a85828601612c40565b9250506020612c8b85828601612b8b565b9150509250929050565b612c9e81612a82565b8114612ca957600080fd5b50565b600081359050612cbb81612c95565b92915050565b600060208284031215612cd757612cd66129f3565b5b6000612ce584828501612cac565b91505092915050565b612cf781612b6a565b82525050565b6000602082019050612d126000830184612cee565b92915050565b600080600060608486031215612d3157612d306129f3565b5b6000612d3f86828701612c40565b9350506020612d5086828701612c40565b9250506040612d6186828701612b8b565b9150509250925092565b600060208284031215612d8157612d806129f3565b5b6000612d8f84828501612c40565b91505092915050565b60008060408385031215612daf57612dae6129f3565b5b6000612dbd85828601612c40565b9250506020612dce85828601612cac565b9150509250929050565b600080fd5b600080fd5b7f4e487b7100000000000000000000000000000000000000000000000000000000600052604160045260246000fd5b612e1a82612afe565b810181811067ffffffffffffffff82111715612e3957612e38612de2565b5b80604052505050565b6000612e4c6129e9565b9050612e588282612e11565b919050565b600067ffffffffffffffff821115612e7857612e77612de2565b5b612e8182612afe565b9050602081019050919050565b82818337600083830152505050565b6000612eb0612eab84612e5d565b612e42565b905082815260208101848484011115612ecc57612ecb612ddd565b5b612ed7848285612e8e565b509392505050565b600082601f830112612ef457612ef3612dd8565b5b8135612f04848260208601612e9d565b91505092915050565b60008060008060808587031215612f2757612f266129f3565b5b6000612f3587828801612c40565b9450506020612f4687828801612c40565b9350506040612f5787828801612b8b565b925050606085013567ffffffffffffffff811115612f7857612f776129f8565b5b612f8487828801612edf565b91505092959194509250565b60008060408385031215612fa757612fa66129f3565b5b6000612fb585828601612c40565b9250506020612fc685828601612c40565b9150509250929050565b7f4e487b7100000000000000000000000000000000000000000000000000000000600052601160045260246000fd5b600061300a82612b6a565b915061301583612b6a565b925082820190508082111561302d5761302c612fd0565b5b92915050565b7f4e487b7100000000000000000000000000000000000000000000000000000000600052602260045260246000fd5b6000600282049050600182168061307a57607f821691505b60208210810361308d5761308c613033565b5b50919050565b7f4552433732313a20617070726f76616c20746f2063757272656e74206f776e6560008201527f7200000000000000000000000000000000000000000000000000000000000000602082015250565b60006130ef602183612ac3565b91506130fa82613093565b604082019050919050565b6000602082019050818103600083015261311e816130e2565b9050919050565b7f4552433732313a20617070726f76652063616c6c6572206973206e6f7420746f60008201527f6b656e206f776e6572206f7220617070726f76656420666f7220616c6c000000602082015250565b6000613181603d83612ac3565b915061318c82613125565b604082019050919050565b600060208201905081810360008301526131b081613174565b9050919050565b7f436f6e74726163742063757272656e746c792070617573656400000000000000600082015250565b60006131ed601983612ac3565b91506131f8826131b7565b602082019050919050565b6000602082019050818103600083015261321c816131e0565b9050919050565b7f50726573616c6520686173206e6f7420656e6465642079657400000000000000600082015250565b6000613259601983612ac3565b915061326482613223565b602082019050919050565b600060208201905081810360008301526132888161324c565b9050919050565b7f457863656564206d6178696d756e2043727970746f204465767320737570706c60008201527f7900000000000000000000000000000000000000000000000000000000000000602082015250565b60006132eb602183612ac3565b91506132f68261328f565b604082019050919050565b6000602082019050818103600083015261331a816132de565b9050919050565b7f45746865722073656e74206973206e6f7420636f72726563742e20507269636560008201527f20697320302e3031206574686572000000000000000000000000000000000000602082015250565b600061337d602e83612ac3565b915061338882613321565b604082019050919050565b600060208201905081810360008301526133ac81613370565b9050919050565b7f4552433732313a2063616c6c6572206973206e6f7420746f6b656e206f776e6560008201527f72206f7220617070726f76656400000000000000000000000000000000000000602082015250565b600061340f602d83612ac3565b915061341a826133b3565b604082019050919050565b6000602082019050818103600083015261343e81613402565b9050919050565b7f455243373231456e756d657261626c653a206f776e657220696e646578206f7560008201527f74206f6620626f756e6473000000000000000000000000000000000000000000602082015250565b60006134a1602b83612ac3565b91506134ac82613445565b604082019050919050565b600060208201905081810360008301526134d081613494565b9050919050565b600081905092915050565b50565b60006134f26000836134d7565b91506134fd826134e2565b600082019050919050565b6000613513826134e5565b9150819050919050565b7f4661696c656420746f2073656e64204574686572000000000000000000000000600082015250565b6000613553601483612ac3565b915061355e8261351d565b602082019050919050565b6000602082019050818103600083015261358281613546565b9050919050565b7f455243373231456e756d657261626c653a20676c6f62616c20696e646578206f60008201527f7574206f6620626f756e64730000000000000000000000000000000000000000602082015250565b60006135e5602c83612ac3565b91506135f082613589565b604082019050919050565b60006020820190508181036000830152613614816135d8565b9050919050565b7f4e487b7100000000000000000000000000000000000000000000000000000000600052603260045260246000fd5b7f50726573616c65206973206e6f742072756e6e696e6700000000000000000000600082015250565b6000613680601683612ac3565b915061368b8261364a565b602082019050919050565b600060208201905081810360008301526136af81613673565b9050919050565b6000815190506136c581612c95565b92915050565b6000602082840312156136e1576136e06129f3565b5b60006136ef848285016136b6565b91505092915050565b7f596f7520617265206e6f742077686974656c6973746564000000000000000000600082015250565b600061372e601783612ac3565b9150613739826136f8565b602082019050919050565b6000602082019050818103600083015261375d81613721565b9050919050565b7f4552433732313a20696e76616c696420746f6b656e2049440000000000000000600082015250565b600061379a601883612ac3565b91506137a582613764565b602082019050919050565b600060208201905081810360008301526137c98161378d565b9050919050565b7f4552433732313a2061646472657373207a65726f206973206e6f74206120766160008201527f6c6964206f776e65720000000000000000000000000000000000000000000000602082015250565b600061382c602983612ac3565b9150613837826137d0565b604082019050919050565b6000602082019050818103600083015261385b8161381f565b9050919050565b600081905092915050565b600061387882612ab8565b6138828185613862565b9350613892818560208601612ad4565b80840191505092915050565b60006138aa828561386d565b91506138b6828461386d565b91508190509392505050565b7f4f776e61626c653a206e6577206f776e657220697320746865207a65726f206160008201527f6464726573730000000000000000000000000000000000000000000000000000602082015250565b600061391e602683612ac3565b9150613929826138c2565b604082019050919050565b6000602082019050818103600083015261394d81613911565b9050919050565b7f4f776e61626c653a2063616c6c6572206973206e6f7420746865206f776e6572600082015250565b600061398a602083612ac3565b915061399582613954565b602082019050919050565b600060208201905081810360008301526139b98161397d565b9050919050565b7f4552433732313a207472616e736665722066726f6d20696e636f72726563742060008201527f6f776e6572000000000000000000000000000000000000000000000000000000602082015250565b6000613a1c602583612ac3565b9150613a27826139c0565b604082019050919050565b60006020820190508181036000830152613a4b81613a0f565b9050919050565b7f4552433732313a207472616e7366657220746f20746865207a65726f2061646460008201527f7265737300000000000000000000000000000000000000000000000000000000602082015250565b6000613aae602483612ac3565b9150613ab982613a52565b604082019050919050565b60006020820190508181036000830152613add81613aa1565b9050919050565b7f4552433732313a20617070726f766520746f2063616c6c657200000000000000600082015250565b6000613b1a601983612ac3565b9150613b2582613ae4565b602082019050919050565b60006020820190508181036000830152613b4981613b0d565b9050919050565b7f4552433732313a207472616e7366657220746f206e6f6e20455243373231526560008201527f63656976657220696d706c656d656e7465720000000000000000000000000000602082015250565b6000613bac603283612ac3565b9150613bb782613b50565b604082019050919050565b60006020820190508181036000830152613bdb81613b9f565b9050919050565b7f4e487b7100000000000000000000000000000000000000000000000000000000600052601260045260246000fd5b7f455243373231456e756d657261626c653a20636f6e736563757469766520747260008201527f616e7366657273206e6f7420737570706f727465640000000000000000000000602082015250565b6000613c6d603583612ac3565b9150613c7882613c11565b604082019050919050565b60006020820190508181036000830152613c9c81613c60565b9050919050565b600081519050919050565b600082825260208201905092915050565b6000613cca82613ca3565b613cd48185613cae565b9350613ce4818560208601612ad4565b613ced81612afe565b840191505092915050565b6000608082019050613d0d6000830187612bff565b613d1a6020830186612bff565b613d276040830185612cee565b8181036060830152613d398184613cbf565b905095945050505050565b600081519050613d5381612a29565b92915050565b600060208284031215613d6f57613d6e6129f3565b5b6000613d7d84828501613d44565b91505092915050565b7f4552433732313a206d696e7420746f20746865207a65726f2061646472657373600082015250565b6000613dbc602083612ac3565b9150613dc782613d86565b602082019050919050565b60006020820190508181036000830152613deb81613daf565b9050919050565b7f4552433732313a20746f6b656e20616c7265616479206d696e74656400000000600082015250565b6000613e28601c83612ac3565b9150613e3382613df2565b602082019050919050565b60006020820190508181036000830152613e5781613e1b565b9050919050565b6000613e6982612b6a565b9150613e7483612b6a565b9250828203905081811115613e8c57613e8b612fd0565b5b92915050565b7f4e487b7100000000000000000000000000000000000000000000000000000000600052603160045260246000fdfea2646970667358221220d91911b8ee5148f201612b05d3de3139687d1cedc2461f05c061eab50f535d6864736f6c63430008110033",
  "linkReferences": {},
  "deployedLinkReferences": {}
}