{
  "_format": "hh-sol-artifact-1",
  "contractName": "CryptoDevsDAO",
  "sourceName": "contracts/CryptoDevsDAO.sol",
  "abi": [
    {
      "inputs": [
        {
          "internalType": "address",
          "name": "_nftMarketplace",
          "type": "address"
        },
        {
          "internalType": "address",
          "name": "_cryptoDevsNFT",
          "type": "address"
        }
      ],
      "stateMutability": "payable",
      "type": "constructor"
    },
    {
      "anonymous": false,
      "inputs": [
        {
          "indexed": true,
          "internalType": "address",
          "name": "previousOwner",
          "type": "address"
        },
        {
          "indexed": true,
          "internalType": "address",
          "name": "newOwner",
          "type": "address"
        }
      ],
      "name": "OwnershipTransferred",
      "type": "event"
    },
    {
      "stateMutability": "payable",
      "type": "fallback"
    },
    {
      "inputs": [
        {
          "internalType": "uint256",
          "name": "_nftTokenId",
          "type": "uint256"
        }
      ],
      "name": "createProposal",
      "outputs": [
        {
          "internalType": "uint256",
          "name": "",
          "type": "uint256"
        }
      ],
      "stateMutability": "nonpayable",
      "type": "function"
    },
    {
      "inputs": [
        {
          "internalType": "uint256",
          "name": "proposalIndex",
          "type": "uint256"
        }
      ],
      "name": "executeProposal",
      "outputs": [],
      "stateMutability": "nonpayable",
      "type": "function"
    },
    {
      "inputs": [],
      "name": "numProposals",
      "outputs": [
        {
          "internalType": "uint256",
          "name": "",
          "type": "uint256"
        }
      ],
      "stateMutability": "view",
      "type": "function"
    },
    {
      "inputs": [],
      "name": "owner",
      "outputs": [
        {
          "internalType": "address",
          "name": "",
          "type": "address"
        }
      ],
      "stateMutability": "view",
      "type": "function"
    },
    {
      "inputs": [
        {
          "internalType": "uint256",
          "name": "",
          "type": "uint256"
        }
      ],
      "name": "proposals",
      "outputs": [
        {
          "internalType": "uint256",
          "name": "nftTokenId",
          "type": "uint256"
        },
        {
          "internalType": "uint256",
          "name": "deadline",
          "type": "uint256"
        },
        {
          "internalType": "uint256",
          "name": "YESVotes",
          "type": "uint256"
        },
        {
          "internalType": "uint256",
          "name": "NOVotes",
          "type": "uint256"
        },
        {
          "internalType": "bool",
          "name": "executed",
          "type": "bool"
        }
      ],
      "stateMutability": "view",
      "type": "function"
    },
    {
      "inputs": [],
      "name": "renounceOwnership",
      "outputs": [],
      "stateMutability": "nonpayable",
      "type": "function"
    },
    {
      "inputs": [
        {
          "internalType": "address",
          "name": "newOwner",
          "type": "address"
        }
      ],
      "name": "transferOwnership",
      "outputs": [],
      "stateMutability": "nonpayable",
      "type": "function"
    },
    {
      "inputs": [
        {
          "internalType": "uint256",
          "name": "proposalIndex",
          "type": "uint256"
        },
        {
          "internalType": "enum CryptoDevsDAO.Vote",
          "name": "vote",
          "type": "uint8"
        }
      ],
      "name": "voteOnProposal",
      "outputs": [],
      "stateMutability": "nonpayable",
      "type": "function"
    },
    {
      "inputs": [],
      "name": "withdrawEther",
      "outputs": [],
      "stateMutability": "nonpayable",
      "type": "function"
    },
    {
      "stateMutability": "payable",
      "type": "receive"
    }
  ],
  "bytecode": "0x60806040526040516200195938038062001959833981810160405281019062000029919062000209565b620000496200003d620000d360201b60201c565b620000db60201b60201c565b81600160006101000a81548173ffffffffffffffffffffffffffffffffffffffff021916908373ffffffffffffffffffffffffffffffffffffffff16021790555080600260006101000a81548173ffffffffffffffffffffffffffffffffffffffff021916908373ffffffffffffffffffffffffffffffffffffffff160217905550505062000250565b600033905090565b60008060009054906101000a900473ffffffffffffffffffffffffffffffffffffffff169050816000806101000a81548173ffffffffffffffffffffffffffffffffffffffff021916908373ffffffffffffffffffffffffffffffffffffffff1602179055508173ffffffffffffffffffffffffffffffffffffffff168173ffffffffffffffffffffffffffffffffffffffff167f8be0079c531659141344cd1fd0a4f28419497f9722a3daafe3b4186f6b6457e060405160405180910390a35050565b600080fd5b600073ffffffffffffffffffffffffffffffffffffffff82169050919050565b6000620001d182620001a4565b9050919050565b620001e381620001c4565b8114620001ef57600080fd5b50565b6000815190506200020381620001d8565b92915050565b600080604083850312156200022357620002226200019f565b5b60006200023385828601620001f2565b92505060206200024685828601620001f2565b9150509250929050565b6116f980620002606000396000f3fe60806040526004361061008a5760003560e01c8063715018a611610059578063715018a6146101655780637362377b1461017c5780638da5cb5b14610193578063efafb22e146101be578063f2fde38b146101e757610091565b8063013cf08b146100935780630d61b519146100d4578063400e3949146100fd5780635a43dc001461012857610091565b3661009157005b005b34801561009f57600080fd5b506100ba60048036038101906100b59190610e7d565b610210565b6040516100cb959493929190610ed4565b60405180910390f35b3480156100e057600080fd5b506100fb60048036038101906100f69190610e7d565b610253565b005b34801561010957600080fd5b506101126105aa565b60405161011f9190610f27565b60405180910390f35b34801561013457600080fd5b5061014f600480360381019061014a9190610e7d565b6105b0565b60405161015c9190610f27565b60405180910390f35b34801561017157600080fd5b5061017a6107c8565b005b34801561018857600080fd5b506101916107dc565b005b34801561019f57600080fd5b506101a861087d565b6040516101b59190610f83565b60405180910390f35b3480156101ca57600080fd5b506101e560048036038101906101e09190610fc3565b6108a6565b005b3480156101f357600080fd5b5061020e6004803603810190610209919061102f565b610c75565b005b60036020528060005260406000206000915090508060000154908060010154908060020154908060030154908060040160009054906101000a900460ff16905085565b6000600260009054906101000a900473ffffffffffffffffffffffffffffffffffffffff1673ffffffffffffffffffffffffffffffffffffffff166370a08231336040518263ffffffff1660e01b81526004016102b09190610f83565b602060405180830381865afa1580156102cd573d6000803e3d6000fd5b505050506040513d601f19601f820116820180604052508101906102f19190611071565b11610331576040517f08c379a0000000000000000000000000000000000000000000000000000000008152600401610328906110fb565b60405180910390fd5b80426003600083815260200190815260200160002060010154111561038b576040517f08c379a000000000000000000000000000000000000000000000000000000000815260040161038290611167565b60405180910390fd5b600015156003600083815260200190815260200160002060040160009054906101000a900460ff161515146103f5576040517f08c379a00000000000000000000000000000000000000000000000000000000081526004016103ec906111d3565b60405180910390fd5b6000600360008481526020019081526020016000209050806003015481600201541115610588576000600160009054906101000a900473ffffffffffffffffffffffffffffffffffffffff1673ffffffffffffffffffffffffffffffffffffffff166398d5fdca6040518163ffffffff1660e01b8152600401602060405180830381865afa15801561048b573d6000803e3d6000fd5b505050506040513d601f19601f820116820180604052508101906104af9190611071565b9050804710156104f4576040517f08c379a00000000000000000000000000000000000000000000000000000000081526004016104eb9061123f565b60405180910390fd5b600160009054906101000a900473ffffffffffffffffffffffffffffffffffffffff1673ffffffffffffffffffffffffffffffffffffffff1663efef39a18284600001546040518363ffffffff1660e01b81526004016105549190610f27565b6000604051808303818588803b15801561056d57600080fd5b505af1158015610581573d6000803e3d6000fd5b5050505050505b60018160040160006101000a81548160ff021916908315150217905550505050565b60045481565b600080600260009054906101000a900473ffffffffffffffffffffffffffffffffffffffff1673ffffffffffffffffffffffffffffffffffffffff166370a08231336040518263ffffffff1660e01b815260040161060e9190610f83565b602060405180830381865afa15801561062b573d6000803e3d6000fd5b505050506040513d601f19601f8201168201806040525081019061064f9190611071565b1161068f576040517f08c379a0000000000000000000000000000000000000000000000000000000008152600401610686906110fb565b60405180910390fd5b600160009054906101000a900473ffffffffffffffffffffffffffffffffffffffff1673ffffffffffffffffffffffffffffffffffffffff166396e494e8836040518263ffffffff1660e01b81526004016106ea9190610f27565b602060405180830381865afa158015610707573d6000803e3d6000fd5b505050506040513d601f19601f8201168201806040525081019061072b919061128b565b61076a576040517f08c379a000000000000000000000000000000000000000000000000000000000815260040161076190611304565b60405180910390fd5b6000600360006004548152602001908152602001600020905061012c426107919190611353565b8160010181905550600460008154809291906107ac90611387565b919050555060016004546107c091906113cf565b915050919050565b6107d0610cf8565b6107da6000610d76565b565b6107e4610cf8565b60004790506000811161082c576040517f08c379a000000000000000000000000000000000000000000000000000000000815260040161082390611475565b60405180910390fd5b61083461087d565b73ffffffffffffffffffffffffffffffffffffffff166108fc829081150290604051600060405180830381858888f19350505050158015610879573d6000803e3d6000fd5b5050565b60008060009054906101000a900473ffffffffffffffffffffffffffffffffffffffff16905090565b6000600260009054906101000a900473ffffffffffffffffffffffffffffffffffffffff1673ffffffffffffffffffffffffffffffffffffffff166370a08231336040518263ffffffff1660e01b81526004016109039190610f83565b602060405180830381865afa158015610920573d6000803e3d6000fd5b505050506040513d601f19601f820116820180604052508101906109449190611071565b11610984576040517f08c379a000000000000000000000000000000000000000000000000000000000815260040161097b906110fb565b60405180910390fd5b81426003600083815260200190815260200160002060010154116109dd576040517f08c379a00000000000000000000000000000000000000000000000000000000081526004016109d4906114e1565b60405180910390fd5b60006003600085815260200190815260200160002090506000600260009054906101000a900473ffffffffffffffffffffffffffffffffffffffff1673ffffffffffffffffffffffffffffffffffffffff166370a08231336040518263ffffffff1660e01b8152600401610a519190610f83565b602060405180830381865afa158015610a6e573d6000803e3d6000fd5b505050506040513d601f19601f82011682018060405250810190610a929190611071565b90506000805b82811015610bc1576000600260009054906101000a900473ffffffffffffffffffffffffffffffffffffffff1673ffffffffffffffffffffffffffffffffffffffff16632f745c5933846040518363ffffffff1660e01b8152600401610aff929190611501565b602060405180830381865afa158015610b1c573d6000803e3d6000fd5b505050506040513d601f19601f82011682018060405250810190610b409190611071565b90506000151585600501600083815260200190815260200160002060009054906101000a900460ff16151503610bad578280610b7b90611387565b935050600185600501600083815260200190815260200160002060006101000a81548160ff0219169083151502179055505b508080610bb990611387565b915050610a98565b5060008111610c05576040517f08c379a0000000000000000000000000000000000000000000000000000000008152600401610bfc90611576565b60405180910390fd5b60006001811115610c1957610c18611596565b5b856001811115610c2c57610c2b611596565b5b03610c515780836002016000828254610c459190611353565b92505081905550610c6d565b80836003016000828254610c659190611353565b925050819055505b505050505050565b610c7d610cf8565b600073ffffffffffffffffffffffffffffffffffffffff168173ffffffffffffffffffffffffffffffffffffffff1603610cec576040517f08c379a0000000000000000000000000000000000000000000000000000000008152600401610ce390611637565b60405180910390fd5b610cf581610d76565b50565b610d00610e3a565b73ffffffffffffffffffffffffffffffffffffffff16610d1e61087d565b73ffffffffffffffffffffffffffffffffffffffff1614610d74576040517f08c379a0000000000000000000000000000000000000000000000000000000008152600401610d6b906116a3565b60405180910390fd5b565b60008060009054906101000a900473ffffffffffffffffffffffffffffffffffffffff169050816000806101000a81548173ffffffffffffffffffffffffffffffffffffffff021916908373ffffffffffffffffffffffffffffffffffffffff1602179055508173ffffffffffffffffffffffffffffffffffffffff168173ffffffffffffffffffffffffffffffffffffffff167f8be0079c531659141344cd1fd0a4f28419497f9722a3daafe3b4186f6b6457e060405160405180910390a35050565b600033905090565b600080fd5b6000819050919050565b610e5a81610e47565b8114610e6557600080fd5b50565b600081359050610e7781610e51565b92915050565b600060208284031215610e9357610e92610e42565b5b6000610ea184828501610e68565b91505092915050565b610eb381610e47565b82525050565b60008115159050919050565b610ece81610eb9565b82525050565b600060a082019050610ee96000830188610eaa565b610ef66020830187610eaa565b610f036040830186610eaa565b610f106060830185610eaa565b610f1d6080830184610ec5565b9695505050505050565b6000602082019050610f3c6000830184610eaa565b92915050565b600073ffffffffffffffffffffffffffffffffffffffff82169050919050565b6000610f6d82610f42565b9050919050565b610f7d81610f62565b82525050565b6000602082019050610f986000830184610f74565b92915050565b60028110610fab57600080fd5b50565b600081359050610fbd81610f9e565b92915050565b60008060408385031215610fda57610fd9610e42565b5b6000610fe885828601610e68565b9250506020610ff985828601610fae565b9150509250929050565b61100c81610f62565b811461101757600080fd5b50565b60008135905061102981611003565b92915050565b60006020828403121561104557611044610e42565b5b60006110538482850161101a565b91505092915050565b60008151905061106b81610e51565b92915050565b60006020828403121561108757611086610e42565b5b60006110958482850161105c565b91505092915050565b600082825260208201905092915050565b7f596f7520617265206e6f7420612043727970746f204465760000000000000000600082015250565b60006110e560188361109e565b91506110f0826110af565b602082019050919050565b60006020820190508181036000830152611114816110d8565b9050919050565b7f446561646c696e65206e6f742065786365656465640000000000000000000000600082015250565b600061115160158361109e565b915061115c8261111b565b602082019050919050565b6000602082019050818103600083015261118081611144565b9050919050565b7f50726f706f73616c20616c726561647920657865637574656400000000000000600082015250565b60006111bd60198361109e565b91506111c882611187565b602082019050919050565b600060208201905081810360008301526111ec816111b0565b9050919050565b7f4e6f20656e6f7567682066756e64730000000000000000000000000000000000600082015250565b6000611229600f8361109e565b9150611234826111f3565b602082019050919050565b600060208201905081810360008301526112588161121c565b9050919050565b61126881610eb9565b811461127357600080fd5b50565b6000815190506112858161125f565b92915050565b6000602082840312156112a1576112a0610e42565b5b60006112af84828501611276565b91505092915050565b7f4e4654206e6f7420666f756e6400000000000000000000000000000000000000600082015250565b60006112ee600d8361109e565b91506112f9826112b8565b602082019050919050565b6000602082019050818103600083015261131d816112e1565b9050919050565b7f4e487b7100000000000000000000000000000000000000000000000000000000600052601160045260246000fd5b600061135e82610e47565b915061136983610e47565b925082820190508082111561138157611380611324565b5b92915050565b600061139282610e47565b91507fffffffffffffffffffffffffffffffffffffffffffffffffffffffffffffffff82036113c4576113c3611324565b5b600182019050919050565b60006113da82610e47565b91506113e583610e47565b92508282039050818111156113fd576113fc611324565b5b92915050565b7f4e6f7468696e6720746f2077697468647261773b20636f6e747261637420626160008201527f6c616e636520656d707479000000000000000000000000000000000000000000602082015250565b600061145f602b8361109e565b915061146a82611403565b604082019050919050565b6000602082019050818103600083015261148e81611452565b9050919050565b7f446561646c696e65206578636565646564000000000000000000000000000000600082015250565b60006114cb60118361109e565b91506114d682611495565b602082019050919050565b600060208201905081810360008301526114fa816114be565b9050919050565b60006040820190506115166000830185610f74565b6115236020830184610eaa565b9392505050565b7f416c726561647920766f74656400000000000000000000000000000000000000600082015250565b6000611560600d8361109e565b915061156b8261152a565b602082019050919050565b6000602082019050818103600083015261158f81611553565b9050919050565b7f4e487b7100000000000000000000000000000000000000000000000000000000600052602160045260246000fd5b7f4f776e61626c653a206e6577206f776e657220697320746865207a65726f206160008201527f6464726573730000000000000000000000000000000000000000000000000000602082015250565b600061162160268361109e565b915061162c826115c5565b604082019050919050565b6000602082019050818103600083015261165081611614565b9050919050565b7f4f776e61626c653a2063616c6c6572206973206e6f7420746865206f776e6572600082015250565b600061168d60208361109e565b915061169882611657565b602082019050919050565b600060208201905081810360008301526116bc81611680565b905091905056fea264697066735822122043ae44ce9fc84b104871d40bb46f71b2e0b92ea1fc280998a57d7359ba1dfcd064736f6c63430008110033",
  "linkReferences": {},
  "deployedLinkReferences": {}
}